{
  "abi": [
    {
      "inputs": [],
      "stateMutability": "nonpayable",
      "type": "constructor"
    },
    {
      "anonymous": false,
      "inputs": [
        {
          "indexed": false,
          "internalType": "address",
          "name": "cohortAddress",
          "type": "address"
        },
        {
          "indexed": false,
          "internalType": "address",
          "name": "deployer",
          "type": "address"
        },
        {
          "indexed": false,
          "internalType": "address",
          "name": "implementation",
          "type": "address"
        },
        {
          "indexed": false,
          "internalType": "address",
          "name": "membershipCriteria",
          "type": "address"
        },
        {
          "indexed": false,
          "internalType": "address",
          "name": "stakeToken",
          "type": "address"
        },
        {
          "indexed": false,
          "internalType": "uint256",
          "name": "stakeAmount",
          "type": "uint256"
        },
        {
          "indexed": false,
          "internalType": "uint256",
          "name": "threshold",
          "type": "uint256"
        },
        {
          "indexed": false,
          "internalType": "uint256",
          "name": "time",
          "type": "uint256"
        }
      ],
      "name": "NewRiteOfMoloch",
      "type": "event"
    },
    {
      "anonymous": false,
      "inputs": [
        {
          "indexed": true,
          "internalType": "bytes32",
          "name": "role",
          "type": "bytes32"
        },
        {
          "indexed": true,
          "internalType": "bytes32",
          "name": "previousAdminRole",
          "type": "bytes32"
        },
        {
          "indexed": true,
          "internalType": "bytes32",
          "name": "newAdminRole",
          "type": "bytes32"
        }
      ],
      "name": "RoleAdminChanged",
      "type": "event"
    },
    {
      "anonymous": false,
      "inputs": [
        {
          "indexed": true,
          "internalType": "bytes32",
          "name": "role",
          "type": "bytes32"
        },
        {
          "indexed": true,
          "internalType": "address",
          "name": "account",
          "type": "address"
        },
        {
          "indexed": true,
          "internalType": "address",
          "name": "sender",
          "type": "address"
        }
      ],
      "name": "RoleGranted",
      "type": "event"
    },
    {
      "anonymous": false,
      "inputs": [
        {
          "indexed": true,
          "internalType": "bytes32",
          "name": "role",
          "type": "bytes32"
        },
        {
          "indexed": true,
          "internalType": "address",
          "name": "account",
          "type": "address"
        },
        {
          "indexed": true,
          "internalType": "address",
          "name": "sender",
          "type": "address"
        }
      ],
      "name": "RoleRevoked",
      "type": "event"
    },
    {
      "inputs": [],
      "name": "ADMIN",
      "outputs": [
        {
          "internalType": "bytes32",
          "name": "",
          "type": "bytes32"
        }
      ],
      "stateMutability": "view",
      "type": "function"
    },
    {
      "inputs": [],
      "name": "DEFAULT_ADMIN_ROLE",
      "outputs": [
        {
          "internalType": "bytes32",
          "name": "",
          "type": "bytes32"
        }
      ],
      "stateMutability": "view",
      "type": "function"
    },
    {
      "inputs": [
        {
          "internalType": "address",
          "name": "implementation",
          "type": "address"
        }
      ],
      "name": "addImplementation",
      "outputs": [],
      "stateMutability": "nonpayable",
      "type": "function"
    },
    {
      "inputs": [
        {
          "components": [
            {
              "internalType": "address",
              "name": "membershipCriteria",
              "type": "address"
            },
            {
              "internalType": "address",
              "name": "stakingAsset",
              "type": "address"
            },
            {
              "internalType": "address",
              "name": "treasury",
              "type": "address"
            },
            {
              "internalType": "uint256",
              "name": "threshold",
              "type": "uint256"
            },
            {
              "internalType": "uint256",
              "name": "assetAmount",
              "type": "uint256"
            },
            {
              "internalType": "uint256",
              "name": "duration",
              "type": "uint256"
            },
            {
              "internalType": "string",
              "name": "name",
              "type": "string"
            },
            {
              "internalType": "string",
              "name": "symbol",
              "type": "string"
            },
            {
              "internalType": "string",
              "name": "baseUri",
              "type": "string"
            }
          ],
          "internalType": "struct InitializationData.InitData",
          "name": "initData",
          "type": "tuple"
        },
        {
          "internalType": "uint256",
          "name": "implementationSelector",
          "type": "uint256"
        }
      ],
      "name": "createCohort",
      "outputs": [
        {
          "internalType": "address",
          "name": "",
          "type": "address"
        }
      ],
      "stateMutability": "nonpayable",
      "type": "function"
    },
    {
      "inputs": [
        {
          "internalType": "bytes32",
          "name": "role",
          "type": "bytes32"
        }
      ],
      "name": "getRoleAdmin",
      "outputs": [
        {
          "internalType": "bytes32",
          "name": "",
          "type": "bytes32"
        }
      ],
      "stateMutability": "view",
      "type": "function"
    },
    {
      "inputs": [
        {
          "internalType": "bytes32",
          "name": "role",
          "type": "bytes32"
        },
        {
          "internalType": "address",
          "name": "account",
          "type": "address"
        }
      ],
      "name": "grantRole",
      "outputs": [],
      "stateMutability": "nonpayable",
      "type": "function"
    },
    {
      "inputs": [
        {
          "internalType": "bytes32",
          "name": "role",
          "type": "bytes32"
        },
        {
          "internalType": "address",
          "name": "account",
          "type": "address"
        }
      ],
      "name": "hasRole",
      "outputs": [
        {
          "internalType": "bool",
          "name": "",
          "type": "bool"
        }
      ],
      "stateMutability": "view",
      "type": "function"
    },
    {
      "inputs": [],
      "name": "iid",
      "outputs": [
        {
          "internalType": "uint256",
          "name": "",
          "type": "uint256"
        }
      ],
      "stateMutability": "view",
      "type": "function"
    },
    {
      "inputs": [
        {
          "internalType": "uint256",
          "name": "",
          "type": "uint256"
        }
      ],
      "name": "implementations",
      "outputs": [
        {
          "internalType": "address",
          "name": "",
          "type": "address"
        }
      ],
      "stateMutability": "view",
      "type": "function"
    },
    {
      "inputs": [
        {
          "internalType": "bytes32",
          "name": "role",
          "type": "bytes32"
        },
        {
          "internalType": "address",
          "name": "account",
          "type": "address"
        }
      ],
      "name": "renounceRole",
      "outputs": [],
      "stateMutability": "nonpayable",
      "type": "function"
    },
    {
      "inputs": [
        {
          "internalType": "bytes32",
          "name": "role",
          "type": "bytes32"
        },
        {
          "internalType": "address",
          "name": "account",
          "type": "address"
        }
      ],
      "name": "revokeRole",
      "outputs": [],
      "stateMutability": "nonpayable",
      "type": "function"
    },
    {
      "inputs": [
        {
          "internalType": "bytes4",
          "name": "interfaceId",
          "type": "bytes4"
        }
      ],
      "name": "supportsInterface",
      "outputs": [
        {
          "internalType": "bool",
          "name": "",
          "type": "bool"
        }
      ],
      "stateMutability": "view",
      "type": "function"
    }
  ],
  "bytecode": {
    "object": "0x608060405234801561001057600080fd5b5060016002556040516100229061011d565b604051809103906000f08015801561003e573d6000803e3d6000fd5b50600254600090815260016020526040812080546001600160a01b0319166001600160a01b039390931692909217909155610079903361007e565b61012a565b6000828152602081815260408083206001600160a01b038516845290915290205460ff16610119576000828152602081815260408083206001600160a01b03851684529091529020805460ff191660011790556100d83390565b6001600160a01b0316816001600160a01b0316837f2f8788117e7eff1d82e926ec794901d17c78024a50270940304540a733656f0d60405160405180910390a45b5050565b612cc780610e2883390190565b610cef806101396000396000f3fe608060405234801561001057600080fd5b50600436106100b45760003560e01c8063515c731b11610071578063515c731b1461018c578063845affc81461019557806391d14854146101be578063a217fddf146101d1578063c6e2a400146101d9578063d547741f146101ec57600080fd5b806301ffc9a7146100b957806305e84611146100e1578063248a9ca31461010c5780632a0acc6a1461013d5780632f2ff15d1461016457806336568abe14610179575b600080fd5b6100cc6100c73660046108dc565b6101ff565b60405190151581526020015b60405180910390f35b6100f46100ef366004610906565b610236565b6040516001600160a01b0390911681526020016100d8565b61012f61011a366004610951565b60009081526020819052604090206001015490565b6040519081526020016100d8565b61012f7fdf8b4c520ffe197c5343c6f5aec59570151ef9a492f2c624fd45ddde6135ec4281565b610177610172366004610981565b6103d6565b005b610177610187366004610981565b610400565b61012f60025481565b6100f46101a3366004610951565b6001602052600090815260409020546001600160a01b031681565b6100cc6101cc366004610981565b61047e565b61012f600081565b6101776101e73660046109ad565b6104a7565b6101776101fa366004610981565b610519565b60006001600160e01b03198216637965db0b60e01b148061023057506301ffc9a760e01b6001600160e01b03198316145b92915050565b6000808211801561024957506002548211155b61028c5760405162461bcd60e51b815260206004820152600f60248201526e10b4b6b83632b6b2b73a30ba34b7b760891b60448201526064015b60405180910390fd5b6000828152600160205260408120546102ad906001600160a01b031661053e565b6040516305db168d60e21b81529091506001600160a01b0382169063176c5a34906102de9087903390600401610a3e565b600060405180830381600087803b1580156102f857600080fd5b505af115801561030c573d6000803e3d6000fd5b5050506000848152600160209081526040909120547f2db17b5971e3340c0b05709edd4e117415f0a71ad88e21c4be938081d85684e69250839133916001600160a01b03169061035e908901896109ad565b61036e60408a0160208b016109ad565b604080516001600160a01b039687168152948616602086015292851684840152908416606080850191909152931660808084019190915288013560a0808401919091529288013560c08301529187013560e08201529051908190036101000190a19392505050565b6000828152602081905260409020600101546103f1816105d8565b6103fb83836105e5565b505050565b6001600160a01b03811633146104705760405162461bcd60e51b815260206004820152602f60248201527f416363657373436f6e74726f6c3a2063616e206f6e6c792072656e6f756e636560448201526e103937b632b9903337b91039b2b63360891b6064820152608401610283565b61047a8282610669565b5050565b6000918252602082815260408084206001600160a01b0393909316845291905290205460ff1690565b7fdf8b4c520ffe197c5343c6f5aec59570151ef9a492f2c624fd45ddde6135ec426104d1816105d8565b600280549060006104e183610b5f565b9091555050600254600090815260016020526040902080546001600160a01b0319166001600160a01b03939093169290921790915550565b600082815260208190526040902060010154610534816105d8565b6103fb8383610669565b6000763d602d80600a3d3981f3363d3d373d3d3d363d730000008260601b60e81c176000526e5af43d82803e903d91602b57fd5bf38260781b17602052603760096000f090506001600160a01b0381166105d35760405162461bcd60e51b8152602060048201526016602482015275115490cc4c4d8dce8818dc99585d194819985a5b195960521b6044820152606401610283565b919050565b6105e281336106ce565b50565b6105ef828261047e565b61047a576000828152602081815260408083206001600160a01b03851684529091529020805460ff191660011790556106253390565b6001600160a01b0316816001600160a01b0316837f2f8788117e7eff1d82e926ec794901d17c78024a50270940304540a733656f0d60405160405180910390a45050565b610673828261047e565b1561047a576000828152602081815260408083206001600160a01b0385168085529252808320805460ff1916905551339285917ff6391f5c32d9c69d2a47ea670b442974b53935d1edc7fd64eb21e047a839171b9190a45050565b6106d8828261047e565b61047a576106e581610727565b6106f0836020610739565b604051602001610701929190610b9c565b60408051601f198184030181529082905262461bcd60e51b825261028391600401610c11565b60606102306001600160a01b03831660145b60606000610748836002610c44565b610753906002610c63565b67ffffffffffffffff81111561076b5761076b610c76565b6040519080825280601f01601f191660200182016040528015610795576020820181803683370190505b509050600360fc1b816000815181106107b0576107b0610c8c565b60200101906001600160f81b031916908160001a905350600f60fb1b816001815181106107df576107df610c8c565b60200101906001600160f81b031916908160001a9053506000610803846002610c44565b61080e906001610c63565b90505b6001811115610886576f181899199a1a9b1b9c1cb0b131b232b360811b85600f166010811061084257610842610c8c565b1a60f81b82828151811061085857610858610c8c565b60200101906001600160f81b031916908160001a90535060049490941c9361087f81610ca2565b9050610811565b5083156108d55760405162461bcd60e51b815260206004820181905260248201527f537472696e67733a20686578206c656e67746820696e73756666696369656e746044820152606401610283565b9392505050565b6000602082840312156108ee57600080fd5b81356001600160e01b0319811681146108d557600080fd5b6000806040838503121561091957600080fd5b823567ffffffffffffffff81111561093057600080fd5b8301610120818603121561094357600080fd5b946020939093013593505050565b60006020828403121561096357600080fd5b5035919050565b80356001600160a01b03811681146105d357600080fd5b6000806040838503121561099457600080fd5b823591506109a46020840161096a565b90509250929050565b6000602082840312156109bf57600080fd5b6108d58261096a565b6000808335601e198436030181126109df57600080fd5b830160208101925035905067ffffffffffffffff8111156109ff57600080fd5b803603821315610a0e57600080fd5b9250929050565b81835281816020850137506000828201602090810191909152601f909101601f19169091010190565b60408152610a5f60408201610a528561096a565b6001600160a01b03169052565b6000610a6d6020850161096a565b6001600160a01b03166060830152610a876040850161096a565b6001600160a01b038116608084015250606084013560a0830152608084013560c083015260a084013560e0830152610ac260c08501856109c8565b6101206101008181870152610adc61016087018486610a15565b9350610aeb60e08901896109c8565b9350603f19808887030184890152610b04868684610a15565b9550610b12838b018b6109c8565b955093508088870301610140890152505050610b2f838383610a15565b93505050506108d560208301846001600160a01b03169052565b634e487b7160e01b600052601160045260246000fd5b600060018201610b7157610b71610b49565b5060010190565b60005b83811015610b93578181015183820152602001610b7b565b50506000910152565b7f416363657373436f6e74726f6c3a206163636f756e7420000000000000000000815260008351610bd4816017850160208801610b78565b7001034b99036b4b9b9b4b733903937b6329607d1b6017918401918201528351610c05816028840160208801610b78565b01602801949350505050565b6020815260008251806020840152610c30816040850160208701610b78565b601f01601f19169190910160400192915050565b6000816000190483118215151615610c5e57610c5e610b49565b500290565b8082018082111561023057610230610b49565b634e487b7160e01b600052604160045260246000fd5b634e487b7160e01b600052603260045260246000fd5b600081610cb157610cb1610b49565b50600019019056fea26469706673582212209e8fa1dfad45c99c187bcf7958f047b05f863723c0b8a4a6c978a0333d7212af64736f6c6343000810003360806040523480156200001157600080fd5b506200001c62000022565b620000e4565b600054610100900460ff16156200008f5760405162461bcd60e51b815260206004820152602760248201527f496e697469616c697a61626c653a20636f6e747261637420697320696e697469604482015266616c697a696e6760c81b606482015260840160405180910390fd5b60005460ff9081161015620000e2576000805460ff191660ff9081179091556040519081527f7f26b83ff96e1f2b6a682f133852f6798a09c465da95921460cefb38474024989060200160405180910390a15b565b612bd380620000f46000396000f3fe608060405234801561001057600080fd5b506004361061023d5760003560e01c8063853a77c11161013b578063bc5fa8df116100b8578063e5d057221161007c578063e5d057221461051e578063e985e9c51461053e578063eb3211731461057a578063ec5ffac214610582578063f9bb68fc1461058b57600080fd5b8063bc5fa8df146104bf578063c733d5e9146104d2578063c87b56dd146104e5578063cf0f34c4146104f8578063d547741f1461050b57600080fd5b8063a2213262116100ff578063a22132621461044a578063a22cb46514610473578063a230c52414610486578063b37275d114610499578063b88d4fde146104ac57600080fd5b8063853a77c1146103f257806391d148541461041257806395d89b4114610425578063983d27371461042d578063a217fddf1461044257600080fd5b80632a0acc6a116101c957806342842e0e1161018d57806342842e0e1461039357806355f804b3146103a657806361d027b3146103b95780636352211e146103cc57806370a08231146103df57600080fd5b80632a0acc6a1461033c5780632e152618146103515780632f2ff15d1461035a57806336568abe1461036d5780634162169f1461038057600080fd5b80630c538f2f116102105780630c538f2f146102bf578063176c5a34146102d2578063233e9903146102e557806323b872dd146102f8578063248a9ca31461030b57600080fd5b806301ffc9a71461024257806306fdde031461026a578063081812fc1461027f578063095ea7b3146102aa575b600080fd5b61025561025036600461215c565b610594565b60405190151581526020015b60405180910390f35b6102726105a5565b60405161026191906121c9565b61029261028d3660046121dc565b610637565b6040516001600160a01b039091168152602001610261565b6102bd6102b836600461220a565b61065e565b005b6102bd6102cd366004612236565b610778565b6102bd6102e03660046122a8565b61081d565b6102bd6102f33660046121dc565b610aef565b6102bd610306366004612300565b610b9d565b61032e6103193660046121dc565b60009081526097602052604090206001015490565b604051908152602001610261565b61032e600080516020612b7e83398151915281565b61032e60d05481565b6102bd610368366004612341565b610bcb565b6102bd61037b366004612341565b610bf0565b60cd54610292906001600160a01b031681565b6102bd6103a1366004612300565b610c6e565b6102bd6103b4366004612236565b610c89565b60d354610292906001600160a01b031681565b6102926103da3660046121dc565b610cab565b61032e6103ed366004612366565b610d0b565b61032e610400366004612366565b60cb6020526000908152604090205481565b610255610420366004612341565b610d91565b610272610dbc565b61032e600080516020612b5e83398151915281565b61032e600081565b61032e610458366004612366565b6001600160a01b0316600090815260ca602052604090205490565b6102bd610481366004612391565b610dcb565b610255610494366004612366565b610dd6565b6102bd6104a73660046123bf565b610e6e565b6102bd6104ba366004612469565b610e80565b6102bd6104cd3660046121dc565b610eb8565b6102bd6104e0366004612366565b610f67565b6102726104f33660046121dc565b611009565b6102bd6105063660046121dc565b611070565b6102bd610519366004612341565b61111e565b61032e61052c366004612366565b60ca6020526000908152604090205481565b61025561054c36600461252d565b6001600160a01b039182166000908152606a6020908152604080832093909416825291909152205460ff1690565b6102bd611143565b61032e60d15481565b61032e60d25481565b600061059f82611191565b92915050565b6060606580546105b49061254b565b80601f01602080910402602001604051908101604052809291908181526020018280546105e09061254b565b801561062d5780601f106106025761010080835404028352916020019161062d565b820191906000526020600020905b81548152906001019060200180831161061057829003601f168201915b5050505050905090565b6000610642826111b6565b506000908152606960205260409020546001600160a01b031690565b600061066982610cab565b9050806001600160a01b0316836001600160a01b0316036106db5760405162461bcd60e51b815260206004820152602160248201527f4552433732313a20617070726f76616c20746f2063757272656e74206f776e656044820152603960f91b60648201526084015b60405180910390fd5b336001600160a01b03821614806106f757506106f7813361054c565b6107695760405162461bcd60e51b815260206004820152603d60248201527f4552433732313a20617070726f76652063616c6c6572206973206e6f7420746f60448201527f6b656e206f776e6572206f7220617070726f76656420666f7220616c6c00000060648201526084016106d2565b6107738383611215565b505050565b61078133610d0b565b6001146107d05760405162461bcd60e51b815260206004820152601960248201527f4f6e6c7920636f686f7274207061727469636970616e7473210000000000000060448201526064016106d2565b60d3546040517f7ad32bfb950c825d7d252f51537ad223c191a793ae9109cffc3bbd287485f6df916108119133916001600160a01b03169086908690612585565b60405180910390a15050565b600054610100900460ff161580801561083d5750600054600160ff909116105b806108575750303b158015610857575060005460ff166001145b6108ba5760405162461bcd60e51b815260206004820152602e60248201527f496e697469616c697a61626c653a20636f6e747261637420697320616c72656160448201526d191e481a5b9a5d1a585b1a5e995960921b60648201526084016106d2565b6000805460ff1916600117905580156108dd576000805461ff0019166101001790555b6108eb60cc80546001019055565b6108f3611283565b61097f61090360c08501856125d1565b8080601f0160208091040260200160405190810160405280939291908181526020018383808284376000920191909152506109459250505060e08601866125d1565b8080601f0160208091040260200160405190810160405280939291908181526020018383808284376000920191909152506112aa92505050565b61098c6020840184612366565b60cd80546001600160a01b0319166001600160a01b03929092169190911790556109bc6060840160408501612366565b60d380546001600160a01b0319166001600160a01b03929092169190911790556109ec6040840160208501612366565b60ce80546001600160a01b0319166001600160a01b0392909216919091179055606083013560d055610a1f6000836112db565b610a37600080516020612b7e833981519152336112db565b610a4f600080516020612b5e833981519152336112db565b610a75600080516020612b5e833981519152600080516020612b7e833981519152611361565b610a828360800135610aef565b610a8f8360a00135611070565b610aa5610aa06101008501856125d1565b6113ac565b8015610773576000805461ff0019169055604051600181527f7f26b83ff96e1f2b6a682f133852f6798a09c465da95921460cefb38474024989060200160405180910390a1505050565b600080516020612b7e833981519152610b07816113b9565b60008211610b685760405162461bcd60e51b815260206004820152602860248201527f4d696e696d756d207374616b65206d7573742062652067726561746572207468604482015267616e207a65726f2160c01b60648201526084016106d2565b60d18290556040518281527fb4b5fad09421a48c68e8513475c3adbf47ed48a5eefe543d4fec52c82db4746990602001610811565b610ba733826113c3565b610bc35760405162461bcd60e51b81526004016106d29061261f565b610773600080fd5b600082815260976020526040902060010154610be6816113b9565b61077383836112db565b6001600160a01b0381163314610c605760405162461bcd60e51b815260206004820152602f60248201527f416363657373436f6e74726f6c3a2063616e206f6e6c792072656e6f756e636560448201526e103937b632b9903337b91039b2b63360891b60648201526084016106d2565b610c6a8282611442565b5050565b61077383838360405180602001604052806000815250610e80565b600080516020612b7e833981519152610ca1816113b9565b61077383836113ac565b6000818152606760205260408120546001600160a01b03168061059f5760405162461bcd60e51b8152602060048201526018602482015277115490cdcc8c4e881a5b9d985b1a59081d1bdad95b88125160421b60448201526064016106d2565b60006001600160a01b038216610d755760405162461bcd60e51b815260206004820152602960248201527f4552433732313a2061646472657373207a65726f206973206e6f7420612076616044820152683634b21037bbb732b960b91b60648201526084016106d2565b506001600160a01b031660009081526068602052604090205490565b60009182526097602090815260408084206001600160a01b0393909316845291905290205460ff1690565b6060606680546105b49061254b565b610c6a3383836114a9565b60cd5460405163022b92c360e21b81526001600160a01b03838116600483015260009283929116906308ae4b0c9060240160c060405180830381865afa158015610e24573d6000803e3d6000fd5b505050506040513d601f19601f82011682018060405250810190610e48919061266c565b602081015160d054919250908110610e64575060019392505050565b5060009392505050565b610e76611577565b610c6a8282611637565b610e8a33836113c3565b610ea65760405162461bcd60e51b81526004016106d29061261f565b610eb28484848461184b565b50505050565b600080516020612b7e833981519152610ed0816113b9565b60008211610f325760405162461bcd60e51b815260206004820152602960248201527f4d696e696d756d20736861726573206d7573742062652067726561746572207460448201526868616e207a65726f2160b81b60648201526084016106d2565b60d08290556040518281527f7155dd2d80b479664a5c9bf2c04a1b00c07aad515f3c089a20ce1ebff2c6ecdd90602001610811565b323314610fb65760405162461bcd60e51b815260206004820152601f60248201527f5468652063616c6c657220697320616e6f7468657220636f6e7472616374210060448201526064016106d2565b610fbf8161187b565b610ffd5760405162461bcd60e51b815260206004820152600f60248201526e5374616b696e67206661696c65642160881b60448201526064016106d2565b6110068161198f565b50565b6060611014826111b6565b600061101e611a25565b9050600081511161103e5760405180602001604052806000815250611069565b8061104884611a34565b6040516020016110599291906126f7565b6040516020818303038152906040525b9392505050565b600080516020612b5e833981519152611088816113b9565b600082116110e95760405162461bcd60e51b815260206004820152602860248201527f4d696e696d756d206475726174696f6e206d7573742062652067726561746572604482015267207468616e20302160c01b60648201526084016106d2565b60d28290556040518281527f856717cb327b027e506a205b6a989525427e169d7b6acb09ad84d849dea2b93f90602001610811565b600082815260976020526040902060010154611139816113b9565b6107738383611442565b61114b611577565b611153611b35565b61118f5760405162461bcd60e51b815260206004820152600d60248201526c436c61696d206661696c65642160981b60448201526064016106d2565b565b60006001600160e01b03198216637965db0b60e01b148061059f575061059f82611c6c565b6000818152606760205260409020546001600160a01b03166110065760405162461bcd60e51b8152602060048201526018602482015277115490cdcc8c4e881a5b9d985b1a59081d1bdad95b88125160421b60448201526064016106d2565b600081815260696020526040902080546001600160a01b0319166001600160a01b038416908117909155819061124a82610cab565b6001600160a01b03167f8c5be1e5ebec7d5bd14f71427d1e84f3dd0314c0f7b2291e5b200ac8c7c3b92560405160405180910390a45050565b600054610100900460ff1661118f5760405162461bcd60e51b81526004016106d290612726565b600054610100900460ff166112d15760405162461bcd60e51b81526004016106d290612726565b610c6a8282611cbc565b6112e58282610d91565b610c6a5760008281526097602090815260408083206001600160a01b03851684529091529020805460ff1916600117905561131d3390565b6001600160a01b0316816001600160a01b0316837f2f8788117e7eff1d82e926ec794901d17c78024a50270940304540a733656f0d60405160405180910390a45050565b600082815260976020526040808220600101805490849055905190918391839186917fbd79b86ffe0ab8e8776151514217cd7cacd52c909f66475c3af44e129f0b00ff9190a4505050565b60cf6107738284836127bf565b6110068133611cfc565b6000806113cf83610cab565b9050806001600160a01b0316846001600160a01b0316148061141657506001600160a01b038082166000908152606a602090815260408083209388168352929052205460ff165b8061143a5750836001600160a01b031661142f84610637565b6001600160a01b0316145b949350505050565b61144c8282610d91565b15610c6a5760008281526097602090815260408083206001600160a01b0385168085529252808320805460ff1916905551339285917ff6391f5c32d9c69d2a47ea670b442974b53935d1edc7fd64eb21e047a839171b9190a45050565b816001600160a01b0316836001600160a01b03160361150a5760405162461bcd60e51b815260206004820152601960248201527f4552433732313a20617070726f766520746f2063616c6c65720000000000000060448201526064016106d2565b6001600160a01b038381166000818152606a6020908152604080832094871680845294825291829020805460ff191686151590811790915591519182527f17307eab39ab6107e8899845ad3d59bd9653f200f220920489ca2b5937696c31910160405180910390a3505050565b60cd5460405163022b92c360e21b81523360048201526000916001600160a01b0316906308ae4b0c9060240160c060405180830381865afa1580156115c0573d6000803e3d6000fd5b505050506040513d601f19601f820116820180604052508101906115e4919061266c565b602081015160d05491925090811015610c6a5760405162461bcd60e51b8152602060048201526015602482015274596f75206d7573742062652061206d656d6265722160581b60448201526064016106d2565b6000805b8281101561176857600084848381811061165757611657612880565b905060200201602081019061166c9190612366565b6001600160a01b038116600090815260ca602052604090205490915042811080156116ae57506001600160a01b038216600090815260c9602052604090205415155b1561174e576001600160a01b038216600090815260c960205260409020546116d681866128ac565b604080516001600160a01b038616815260208101849052338183015290519196507f1b4365d94ccfc86d7cd3eef46bf15cd821f8abb29721248eca1d751eebb66900919081900360600190a1506001600160a01b038216600090815260c96020908152604080832083905560ca909152812055611755565b5050611758565b50505b611761816128bf565b905061163b565b5060ce5460d35460405163a9059cbb60e01b81526001600160a01b0391821660048201526024810184905291169063a9059cbb906044016020604051808303816000875af11580156117be573d6000803e3d6000fd5b505050506040513d601f19601f820116820180604052508101906117e291906128d8565b6118225760405162461bcd60e51b81526020600482015260116024820152704661696c6564205361637269666963652160781b60448201526064016106d2565b33600090815260cb6020526040812080548392906118419084906128ac565b9091555050505050565b611853600080fd5b61185f84848484611d55565b610eb25760405162461bcd60e51b81526004016106d2906128f5565b600061188682610d0b565b156118d35760405162461bcd60e51b815260206004820152601e60248201527f416c7265616479206a6f696e65642074686520696e6974696174696f6e21000060448201526064016106d2565b60d1546001600160a01b038316600090815260c9602052604090205560d2546118fc90426128ac565b6001600160a01b03838116600090815260ca6020526040908190209290925560ce5460d15492516323b872dd60e01b8152336004820152306024820152604481019390935216906323b872dd906064016020604051808303816000875af115801561196b573d6000803e3d6000fd5b505050506040513d601f19601f8201168201806040525081019061059f91906128d8565b600061199a60cc5490565b60d1546001600160a01b038416600081815260ca60209081526040918290205482519384523391840191909152908201849052606082019290925260808101919091529091507f9da9a86fb849b37cb0098539441b747ca3c0c5a367f5eaef701e6877e4b124d79060a00160405180910390a1611a1b60cc80546001019055565b610c6a8282611e56565b606060cf80546105b49061254b565b606081600003611a5b5750506040805180820190915260018152600360fc1b602082015290565b8160005b8115611a855780611a6f816128bf565b9150611a7e9050600a8361295d565b9150611a5f565b60008167ffffffffffffffff811115611aa057611aa0612422565b6040519080825280601f01601f191660200182016040528015611aca576020820181803683370190505b5090505b841561143a57611adf600183612971565b9150611aec600a86612984565b611af79060306128ac565b60f81b818381518110611b0c57611b0c612880565b60200101906001600160f81b031916908160001a905350611b2e600a8661295d565b9450611ace565b33600081815260c96020526040812054909190611b8a5760405162461bcd60e51b81526020600482015260136024820152725573657220686173206e6f207374616b65212160681b60448201526064016106d2565b6001600160a01b038116600081815260c96020908152604080832080549084905560ca835281842093909355805193845290830182905290917f47cee97cb7acd717b3c0aa1435d004cd5b3c8c57d70dbceb4e4458bbd60e39d4910160405180910390a160ce5460405163a9059cbb60e01b81526001600160a01b038481166004830152602482018490529091169063a9059cbb906044016020604051808303816000875af1158015611c41573d6000803e3d6000fd5b505050506040513d601f19601f82011682018060405250810190611c6591906128d8565b9250505090565b60006001600160e01b031982166380ac58cd60e01b1480611c9d57506001600160e01b03198216635b5e139f60e01b145b8061059f57506301ffc9a760e01b6001600160e01b031983161461059f565b600054610100900460ff16611ce35760405162461bcd60e51b81526004016106d290612726565b6065611cef8382612998565b5060666107738282612998565b611d068282610d91565b610c6a57611d1381611f98565b611d1e836020611faa565b604051602001611d2f929190612a58565b60408051601f198184030181529082905262461bcd60e51b82526106d2916004016121c9565b60006001600160a01b0384163b15611e4b57604051630a85bd0160e11b81526001600160a01b0385169063150b7a0290611d99903390899088908890600401612acd565b6020604051808303816000875af1925050508015611dd4575060408051601f3d908101601f19168201909252611dd191810190612b0a565b60015b611e31573d808015611e02576040519150601f19603f3d011682016040523d82523d6000602084013e611e07565b606091505b508051600003611e295760405162461bcd60e51b81526004016106d2906128f5565b805181602001fd5b6001600160e01b031916630a85bd0160e11b14905061143a565b506001949350505050565b6001600160a01b038216611eac5760405162461bcd60e51b815260206004820181905260248201527f4552433732313a206d696e7420746f20746865207a65726f206164647265737360448201526064016106d2565b6000818152606760205260409020546001600160a01b031615611f115760405162461bcd60e51b815260206004820152601c60248201527f4552433732313a20746f6b656e20616c7265616479206d696e7465640000000060448201526064016106d2565b6001600160a01b0382166000908152606860205260408120805460019290611f3a9084906128ac565b909155505060008181526067602052604080822080546001600160a01b0319166001600160a01b03861690811790915590518392907fddf252ad1be2c89b69c2b068fc378daa952ba7f163c4a11628f55a4df523b3ef908290a45050565b606061059f6001600160a01b03831660145b60606000611fb9836002612b27565b611fc49060026128ac565b67ffffffffffffffff811115611fdc57611fdc612422565b6040519080825280601f01601f191660200182016040528015612006576020820181803683370190505b509050600360fc1b8160008151811061202157612021612880565b60200101906001600160f81b031916908160001a905350600f60fb1b8160018151811061205057612050612880565b60200101906001600160f81b031916908160001a9053506000612074846002612b27565b61207f9060016128ac565b90505b60018111156120f7576f181899199a1a9b1b9c1cb0b131b232b360811b85600f16601081106120b3576120b3612880565b1a60f81b8282815181106120c9576120c9612880565b60200101906001600160f81b031916908160001a90535060049490941c936120f081612b46565b9050612082565b5083156110695760405162461bcd60e51b815260206004820181905260248201527f537472696e67733a20686578206c656e67746820696e73756666696369656e7460448201526064016106d2565b6001600160e01b03198116811461100657600080fd5b60006020828403121561216e57600080fd5b813561106981612146565b60005b8381101561219457818101518382015260200161217c565b50506000910152565b600081518084526121b5816020860160208601612179565b601f01601f19169290920160200192915050565b602081526000611069602083018461219d565b6000602082840312156121ee57600080fd5b5035919050565b6001600160a01b038116811461100657600080fd5b6000806040838503121561221d57600080fd5b8235612228816121f5565b946020939093013593505050565b6000806020838503121561224957600080fd5b823567ffffffffffffffff8082111561226157600080fd5b818501915085601f83011261227557600080fd5b81358181111561228457600080fd5b86602082850101111561229657600080fd5b60209290920196919550909350505050565b600080604083850312156122bb57600080fd5b823567ffffffffffffffff8111156122d257600080fd5b830161012081860312156122e557600080fd5b915060208301356122f5816121f5565b809150509250929050565b60008060006060848603121561231557600080fd5b8335612320816121f5565b92506020840135612330816121f5565b929592945050506040919091013590565b6000806040838503121561235457600080fd5b8235915060208301356122f5816121f5565b60006020828403121561237857600080fd5b8135611069816121f5565b801515811461100657600080fd5b600080604083850312156123a457600080fd5b82356123af816121f5565b915060208301356122f581612383565b600080602083850312156123d257600080fd5b823567ffffffffffffffff808211156123ea57600080fd5b818501915085601f8301126123fe57600080fd5b81358181111561240d57600080fd5b8660208260051b850101111561229657600080fd5b634e487b7160e01b600052604160045260246000fd5b604051601f8201601f1916810167ffffffffffffffff8111828210171561246157612461612422565b604052919050565b6000806000806080858703121561247f57600080fd5b843561248a816121f5565b935060208581013561249b816121f5565b935060408601359250606086013567ffffffffffffffff808211156124bf57600080fd5b818801915088601f8301126124d357600080fd5b8135818111156124e5576124e5612422565b6124f7601f8201601f19168501612438565b9150808252898482850101111561250d57600080fd5b808484018584013760008482840101525080935050505092959194509250565b6000806040838503121561254057600080fd5b82356122e5816121f5565b600181811c9082168061255f57607f821691505b60208210810361257f57634e487b7160e01b600052602260045260246000fd5b50919050565b6001600160a01b0385811682528416602082015260606040820181905281018290526000828460808401376000608084840101526080601f19601f850116830101905095945050505050565b6000808335601e198436030181126125e857600080fd5b83018035915067ffffffffffffffff82111561260357600080fd5b60200191503681900382131561261857600080fd5b9250929050565b6020808252602d908201527f4552433732313a2063616c6c6572206973206e6f7420746f6b656e206f776e6560408201526c1c881bdc88185c1c1c9bdd9959609a1b606082015260800190565b600060c0828403121561267e57600080fd5b60405160c0810181811067ffffffffffffffff821117156126a1576126a1612422565b60405282516126af816121f5565b80825250602083015160208201526040830151604082015260608301516126d581612383565b60608201526080838101519082015260a0928301519281019290925250919050565b60008351612709818460208801612179565b83519083019061271d818360208801612179565b01949350505050565b6020808252602b908201527f496e697469616c697a61626c653a20636f6e7472616374206973206e6f74206960408201526a6e697469616c697a696e6760a81b606082015260800190565b601f82111561077357600081815260208120601f850160051c810160208610156127985750805b601f850160051c820191505b818110156127b7578281556001016127a4565b505050505050565b67ffffffffffffffff8311156127d7576127d7612422565b6127eb836127e5835461254b565b83612771565b6000601f84116001811461281f57600085156128075750838201355b600019600387901b1c1916600186901b178355612879565b600083815260209020601f19861690835b828110156128505786850135825560209485019460019092019101612830565b508682101561286d5760001960f88860031b161c19848701351681555b505060018560011b0183555b5050505050565b634e487b7160e01b600052603260045260246000fd5b634e487b7160e01b600052601160045260246000fd5b8082018082111561059f5761059f612896565b6000600182016128d1576128d1612896565b5060010190565b6000602082840312156128ea57600080fd5b815161106981612383565b60208082526032908201527f4552433732313a207472616e7366657220746f206e6f6e20455243373231526560408201527131b2b4bb32b91034b6b83632b6b2b73a32b960711b606082015260800190565b634e487b7160e01b600052601260045260246000fd5b60008261296c5761296c612947565b500490565b8181038181111561059f5761059f612896565b60008261299357612993612947565b500690565b815167ffffffffffffffff8111156129b2576129b2612422565b6129c6816129c0845461254b565b84612771565b602080601f8311600181146129fb57600084156129e35750858301515b600019600386901b1c1916600185901b1785556127b7565b600085815260208120601f198616915b82811015612a2a57888601518255948401946001909101908401612a0b565b5085821015612a485787850151600019600388901b60f8161c191681555b5050505050600190811b01905550565b7f416363657373436f6e74726f6c3a206163636f756e7420000000000000000000815260008351612a90816017850160208801612179565b7001034b99036b4b9b9b4b733903937b6329607d1b6017918401918201528351612ac1816028840160208801612179565b01602801949350505050565b6001600160a01b0385811682528416602082015260408101839052608060608201819052600090612b009083018461219d565b9695505050505050565b600060208284031215612b1c57600080fd5b815161106981612146565b6000816000190483118215151615612b4157612b41612896565b500290565b600081612b5557612b55612896565b50600019019056fe523a704056dcd17bcf83bed8b68c59416dac1119be77755efe3bde0a64e46e0cdf8b4c520ffe197c5343c6f5aec59570151ef9a492f2c624fd45ddde6135ec42a26469706673582212203e56866979cbc1f46b7a9fbca0a065cd7af407beef0cba574ccc260be59d961364736f6c63430008100033",
    "linkReferences": {}
  },
  "methodIdentifiers": {
    "ADMIN()": "2a0acc6a",
    "DEFAULT_ADMIN_ROLE()": "a217fddf",
    "addImplementation(address)": "c6e2a400",
    "createCohort((address,address,address,uint256,uint256,uint256,string,string,string),uint256)": "05e84611",
    "getRoleAdmin(bytes32)": "248a9ca3",
    "grantRole(bytes32,address)": "2f2ff15d",
    "hasRole(bytes32,address)": "91d14854",
    "iid()": "515c731b",
    "implementations(uint256)": "845affc8",
    "renounceRole(bytes32,address)": "36568abe",
    "revokeRole(bytes32,address)": "d547741f",
    "supportsInterface(bytes4)": "01ffc9a7"
  },
  "id": 31
}